:100000000C94BD010C94EE010C94EE010C94EE01E5
:100010000C94EE010C94EE010C94EE010C94EE01A4
:100020000C94EE010C94EE010C94EE010C94EE0194
:100030000C94EE010C94EE010C94EE010C94EE0184
:100040000C94EE010C94EE010C94EE010C94EE0174
:100050000C94EE010C94EE010C94EE010C94A805A6
:100060000C94EE010C941C060C94F2050C94EE0119
:100070000C94EE010C94EE010C94EE010C94EE0144
:100080000C94EE010C94EE010C94EE010C94EE0134
:100090000C94EE010C94EE010C94EE010C94EE0124
:1000A0000C94EE010C94EE010C94EE010C94EE0114
:1000B0000C94EE010C94EE010C94EE010C94EE0104
:1000C0000C94EE010C94EE010C94EE010C94EE01F4
:1000D0000C94EE010C94EE010C94EE010C94EE01E4
:1000E0000C94EE010C94A9020C9483020C94570911
:1000F0000C94870A0C9445090C9490090C943009CF
:100100000C945C030C9481090C9496090C94040AD9
:100110000C9460090C9475090C943C0A0C948A099F
:100120000C943F090C943C090C9424090C94C503CD
:100130000C94220A0C947D0A0C9478090C942109E1
:100140000C945D090C9474020C9427090C945109C9
:100150000C948D090C94690A0C947F030C949302FF
:100160000C94500A0C9466090C9433090C942D09D4
:100170000C948D030C94B3020C944B090C94480915
:100180000C9469090C949C090C9418090C946F093F
:100190000C9416030C9487090C9412040C940E0A08
:1001A0000C941B090C9452060C94320A0C94060908
:1001B0000C94AF020C94A1020C946E020C947E0974
:1001C0000C940F090C9478020C9409090C943609CC
:1001D0000C942A0A0C9499090C9497020C94180A0E
:1001E0000C940C090C94730A0C94A5020C94AE02A6
:1001F0000C9442090C94FF090C9493090C94540933
:100200000C9415090C9463090C947B090C944E0909
:100210000C949B020C945A090C9480020C94890251
:100220000C941E090C948D020C94460A0C947209CD
:100230000C946B030C9439090C94F3090C942A095F
:100240000C945F0A0C947C020C946C090C94840945
:100250000C9412090C94910A00002000230026003F
:1002600029002C002F0032000001000003010601CC
:10027000090100002100240027002A002D00300081
:10028000330001010000040107010A0100002200FF
:10029000250028002B002E00310034000201000050
:1002A000050108010B0105050505070508080808F3
:1002B000020202020A0A08080404040401010101FE
:1002C00001010101030303030303030304070707F9
:1002D0000C0C0C0C0C0C0C0C02020202060606069E
:1002E000060606060B0B0B0B0B0B0B0B010210206B
:1002F000200808102040102040800201020108045C
:1003000002010102040810204080804020100804EF
:100310000201800402018040201008040201080448
:10032000020101020408102040800102040810208C
:10033000408000000A0B02090C0D0E08070304019F
:1003400000000000000000000000000000000000AD
:10035000000000000000000000000000000012117A
:10036000100000000000000000000000000000007D
:100370000000000000000000520611241FBECFEF55
:10038000D1E2DEBFCDBF00E00CBF24E0ACE3B2E0C1
:1003900001C01D92A030B207E1F712E0A0E0B2E088
:1003A000E4E0FAE100E00BBF02C007900D92AC332D
:1003B000B107D9F711E0CDEBD1E000E006C02197FD
:1003C0000109802FFE010E94E20ACC3BD10780E0A8
:1003D0000807A9F70E94B7060C94000D0C940000C2
:1003E000CF92DF92EF92FF92CF93DF93EC016A01FD
:1003F0007B01E889F98982E08083C11481EED80607
:10040000E104F104A1F060E079E08DE390E0A70160
:1004100096010E94C00A215031094109510956959F
:10042000479537952795211580E1380798F0E88999
:10043000F989108260E874E88EE190E0A7019601E6
:100440000E94C00A2150310941095109569547952A
:1004500037952795EC85FD853083EE85FF852083D4
:10046000188EEC89FD8986E08083EA89FB8980818A
:1004700080618083EA89FB89808188608083EA8942
:10048000FB89808180688083EA89FB8980818F7DF8
:100490008083DF91CF91FF90EF90DF90CF90089510
:1004A0008150823108F05AC0E82FF0E08827E45AE2
:1004B000FD4F8F4F0C94E20A7C0280026E027402A0
:1004C0007802AE02830289028D02930297029B0298
:1004D000A102A502AE02A902AF02B3028091800080
:1004E0008F77809380000895809180008F7DF9CF71
:1004F00080918000877FF5CF84B58F7784BD089584
:1005000084B58F7DFBCF8091B0008F778093B00052
:1005100008958091B0008F7DF9CF809190008F7702
:10052000809390000895809190008F7DF9CF809105
:100530009000877FF5CF8091A0008F778093A000F7
:1005400008958091A0008F7DF9CF8091A000877FD2
:10055000F5CF809120018F778093200108958091BD
:1005600020018F7DF9CF80912001877FF5CF1F93E8
:10057000CF93DF93282F30E0F901EE5CFC4F84919C
:10058000F901E451FD4FD491F901EA55FD4FC491B1
:10059000CC23A9F0162F81110E945002EC2FF0E01D
:1005A000EE0FFF1FE457FD4FA591B4918FB7F8945C
:1005B000EC91111108C0D095DE23DC938FBFDF9141
:1005C000CF911F910895DE2BF8CF3FB7F89480911B
:1005D000410290914202A0914302B091440226B59B
:1005E000A89B05C02F3F19F00196A11DB11D3FBF6B
:1005F000BA2FA92F982F8827BC01CD01620F711D3A
:10060000811D911D42E0660F771F881F991F4A9533
:10061000D1F708952FB7F89460913D0270913E0292
:1006200080913F02909140022FBF0895AF92BF92F8
:10063000CF92DF92EF92FF920F931F93CF93DF93AE
:100640006C017B018B01040F151FEB015E01AE18DD
:10065000BF08C017D10759F06991D601ED91FC91FF
:100660000190F081E02DC6011995892B79F7C5011C
:10067000DF91CF911F910F91FF90EF90DF90CF907E
:10068000BF90AF900895CF93DF93FC0144815581D3
:100690006081718185E492E00E941603EC0142E0E2
:1006A00050E068E172E085E492E00E9416038C0F4E
:1006B0009D1FDF91CF910895FC01538D448D252F0F
:1006C00030E0842F90E0821B930B541710F0CF96EC
:1006D000089501970895FC01918D828D981761F01E
:1006E000A28DAE0FBF2FB11D5D968C91928D9F5F35
:1006F0009F73928F90E008958FEF9FEF0895FC0114
:10070000918D828D981731F0828DE80FF11D858DC6
:1007100090E008958FEF9FEF0895FC01918D228D59
:10072000892F90E0805C9F4F821B91098F739927DE
:10073000089585E492E00E948D0321E0892B09F45D
:1007400020E0822F0895FC01A48DA80FB92FB11DC0
:10075000A35ABF4F2C91848D90E001968F739927F7
:10076000848FA689B7892C93A089B1898C918370D5
:1007700080648C93938D848D981306C00288F389CE
:10078000E02D80818F7D80830895EF92FF920F93FB
:100790001F93CF93DF93EC0181E0888F9B8D8C8D2D
:1007A00098131AC0E889F989808185FF15C09FB721
:1007B000F894EE89FF896083E889F98980818370E4
:1007C000806480839FBF81E090E0DF91CF911F9193
:1007D0000F91FF90EF900895F62E0B8D10E00F5FB4
:1007E0001F4F0F731127E02E8C8D8E110CC00FB68A
:1007F00007FCFACFE889F989808185FFF5CFCE0122
:100800000E94A303F1CFEB8DEC0FFD2FF11DE35AF6
:10081000FF4FF0829FB7F8940B8FEA89FB898081A4
:100820008062CFCFCF93DF93EC01888D8823B9F01E
:10083000AA89BB89E889F9898C9185FD03C08081EB
:1008400086FD0DC00FB607FCF7CF8C9185FFF2CF68
:10085000808185FFEDCFCE010E94A303E9CFDF9118
:10086000CF91089580E090E0892B29F00E949903B0
:1008700081110E94000080E090E0892B49F080E027
:1008800090E0892B29F00E94000081110E94000055
:1008900080E090E0892B49F080E090E0892B29F0FE
:1008A0000E94000081110E94000080E090E0892BEE
:1008B00049F080E090E0892B29F00E94000081112E
:1008C0000C94000008950F931F93CF93DF93EC01D6
:1008D00088819981009759F02A813B812617370733
:1008E00030F081E0DF91CF911F910F9108958B013E
:1008F0006F5F7F4F0E940F0C009759F09983888398
:100900001B830A832C813D81232B59F7FC01108224
:10091000E8CF80E0E7CFEF92FF920F931F93CF9342
:10092000DF936115710541F480E0DF91CF911F9154
:100930000F91FF90EF90089541155105B1F07B01A3
:10094000EC010C811D81040F151FB8010E94630486
:10095000882351F3288139818C819D81B701820FD1
:10096000931F0E94F90C1D830C8381E0DECFCF938F
:10097000DF93EC0188819981009711F00E94860B2A
:10098000198218821D821C821B821A82DF91CF91EC
:100990000895EF92FF920F931F93CF93DF93EC0193
:1009A0007B018A01BA010E94630481110BC0CE0150
:1009B0000E94B704CE01DF91CF911F910F91FF905C
:1009C000EF9008951D830C83B701888199810E945F
:1009D000F90CF0CFEF92FF920F931F93CF93DF9319
:1009E00000D000D000D0CDB7DEB78C01862FF80143
:1009F0001182108213821282158214824AE09E01B3
:100A00002F5F3F4F7901B90190E00E94960AF701EC
:100A100001900020E9F73197AF014E195F09B70146
:100A2000C8010E94C90429960FB6F894DEBF0FBE14
:100A3000CDBFDF91CF911F910F91FF90EF9008955F
:100A4000CF93DF93EC01FB018617970749F0608194
:100A500071816115710541F0448155810E94C9047D
:100A6000CE01DF91CF9108950E94B704F9CFFC0128
:100A7000118210821382128215821482FB0101906E
:100A80000020E9F73197AF01461B570B0C94C904BE
:100A9000FC0180819181009711F00C94860B0895E0
:100AA000CF93DF93CDB7DEB762970FB6F894DEBF72
:100AB0000FBECDBF682FCE0107960E94EA046BE1FE
:100AC00072E0CE010D960E9437054B855C856F81E3
:100AD0007885CE010D960E948B04811104C0CE0151
:100AE0000D960E94B70441E150E069E272E0CE0148
:100AF0000D960E948B04811104C0CE010D960E94B8
:100B0000B7041A8219821C821B821E821D82BE01BA
:100B1000635F7F4FCE0101960E942005CE010196B2
:100B20000E944303CE0101960E944805CE010D9616
:100B30000E944805CE0107960E94480580E0629613
:100B40000FB6F894DEBF0FBECDBFDF91CF910895F1
:100B50001F920F920FB60F9211242F933F938F93F2
:100B60009F93AF93BF9380913D0290913E02A091DD
:100B70003F02B091400230913C0223E0230F2D3719
:100B800058F50196A11DB11D20933C0280933D02B2
:100B900090933E02A0933F02B093400280914102A5
:100BA00090914202A0914302B09144020196A11D8E
:100BB000B11D8093410290934202A0934302B093EF
:100BC0004402BF91AF919F918F913F912F910F90D0
:100BD0000FBE0F901F90189526E8230F0296A11DB7
:100BE000B11DD2CF1F920F920FB60F9211240BB6E8
:100BF0000F922F933F934F935F936F937F938F93B6
:100C00009F93AF93BF93EF93FF9385E492E00E948D
:100C1000A303FF91EF91BF91AF919F918F917F912E
:100C20006F915F914F913F912F910F900BBE0F905D
:100C30000FBE0F901F9018951F920F920FB60F9234
:100C400011240BB60F922F938F939F93EF93FF93E3
:100C5000E0915502F09156028081E0915B02F091A3
:100C60005C0282FD1DC0908180915E028F5F8F7358
:100C700020915F02821741F0E0915E02F0E0EB5BB1
:100C8000FD4F958F80935E02FF91EF919F918F9121
:100C90002F910F900BBE0F900FBE0F901F901895C5
:100CA0008081F2CF0F931F93CF93DF93C5E4D2E0FF
:100CB0001B821A8288EE93E0A0E0B0E08C839D83D3
:100CC000AE83BF838AE092E09983888385EC90E0CD
:100CD0009D878C8784EC90E09F878E8780EC90E0E6
:100CE000998B888B81EC90E09B8B8A8B82EC90E0D7
:100CF0009D8B8C8B86EC90E09F8B8E8B198E1A8E41
:100D00001B8E1C8E1092FB031092FA0384E390E07A
:100D10000E94EA0A8C016AE172E008960E94370597
:100D20006AE172E0C80142960E9437056AE172E00A
:100D3000C80148960E9437056AE172E0C8018E96A4
:100D40000E943705D8011796DC93CE93169710931F
:100D5000FB030093FA0386E4E2EEF2E0DF011D926A
:100D60008A95E9F7DF91CF911F910F9108957894BB
:100D700084B5826084BD84B5816084BD85B58260A0
:100D800085BD85B5816085BD80916E008160809351
:100D90006E001092810080918100826080938100BA
:100DA00080918100816080938100809180008160CA
:100DB000809380008091B10084608093B100809125
:100DC000B00081608093B000809191008260809338
:100DD00091008091910081608093910080919000BA
:100DE0008160809390008091A10082608093A10037
:100DF0008091A10081608093A1008091A00081601A
:100E00008093A000809121018260809321018091D4
:100E10002101816080932101809120018160809374
:100E2000200180917A00846080937A0080917A001A
:100E3000826080937A0080917A00816080937A004A
:100E400080917A00806880937A001092C10040E817
:100E500055E260E070E085E492E00E94F001C0910C
:100E6000FA03D091FB0340E855E260E070E08E8128
:100E70009F810E94F0010E94E5024B015C0194E613
:100E8000C92ED12CE12CF12C0E94E50268197909B8
:100E90008A099B09683E734081059105A8F321E00A
:100EA000C21AD108E108F10888EE880E83E0981E86
:100EB000A11CB11CC114D104E104F10429F70E9462
:100EC0000A036FA378A789A79AA78E819F81DC0167
:100ED000ED91FC910084F185E02D19951816190605
:100EE000CCF40E940A030FA118A529A53AA5601BFE
:100EF000710B820B930B613971408105910550F4A0
:100F00008E819F81DC01ED91FC910284F385E02DBF
:100F10001995DBCF8091E402882309F4DAC082E0DE
:100F20000E9450058091E502882309F4D9C083E02E
:100F30000E945005FF24F39402EE12E06801D0E015
:100F4000C0E0F60181916F01882309F435C0EB5BA5
:100F5000FF4F8081982F9D7F79F5813009F4E5C09E
:100F6000823009F4C4C0FE01EE5CFC4F8491FE01A6
:100F7000E451FD4FE490FE01EA55FD4FB490BB20D3
:100F800009F4D3C081110E945002EB2DF0E0EE0F66
:100F9000FF1FE85AFD4FA591B491EC91EE2231E08C
:100FA00020E009F430E0832F922FFE01EE0FFF1FA7
:100FB000E259FC4F918380832196C634D10509F014
:100FC000C0CFC091FA03D091FB038E819F81DC01D9
:100FD000ED91FC910084F185E02D199503970CF4B7
:100FE000B6C08E819F81DC01ED91FC910284F38576
:100FF000E02D19958EA30E940A036FA378A789A7F5
:101000009AA78EA18332C9F08E819F81DC01ED9178
:10101000FC910284F385E02D19958EA30E940A03AA
:101020008FA098A4A9A4BAA4681979098A099B0970
:10103000653671058105910520F38EA1833209F093
:1010400086C08E819F81DC01ED91FC910284F38545
:10105000E02D19958DA70E940A036FA378A789A791
:101060009AA7FBA68E819F81DC01ED91FC91008403
:10107000F185E02D19952DA52817190689F084F022
:101080000E940A038FA098A4A9A4BAA46819790998
:101090008A099B09653671058105910518F31BA620
:1010A0008BA5882309F453C08E819F81DC01ED91CB
:1010B000FC910284F385E02D19958CA78035C1F150
:1010C000843509F45CC08C838DA58D830E9400005B
:1010D0003EC081E08093E40284E080932A0322CF23
:1010E00081E08093E50284E080932B0323CF8C2F53
:1010F000C63308F0865320917B00982F9870277F85
:10110000922B90937B008770806480937C00809109
:101110007A00806480937A0080917A0086FDFCCF0B
:10112000809178009091790040CF90E080E03DCFB1
:10113000888199819B838A838E819F81DC01ED91D7
:10114000FC910284F385E02D199599838883D0E082
:10115000C0E0F80181918F01882309F448C1EB5B5D
:10116000FF4F8081813009F0EAC0FE01EE0FFF1FC2
:10117000E259FC4F60818C2F0E94B70238C18E81EA
:101180009F81DC01ED91FC910284F385E02D19959E
:10119000FC01FF27E333F105D0F68827ED52F74F26
:1011A0008F4F0C94E20A060909090C090F0912096C
:1011B000150918091B091E092109240927092A09EB
:1011C0002D0930093309360939093C093F0942091B
:1011D000450948094B094E095109540957095A094B
:1011E0005D0960096309660969096C096F0972097B
:1011F000750978097B097E098109840987098A09AB
:101200008D0990099309960999099C090E9400008B
:101210009ECF0E9400009BCF0E94000098CF0E94AA
:10122000000095CF0E94000092CF0E9400008FCF57
:101230000E9400008CCF0E94000089CF0E94000015
:1012400086CF0E94000083CF0E94000080CF0E94C2
:1012500000007DCF0E9400007ACF0E94000077CF6F
:101260000E94000074CF0E94000071CF0E94000015
:101270006ECF0E9400006BCF0E94000068CF0E94DA
:10128000000065CF0E94000062CF0E9400005FCF87
:101290000E9400005CCF0E94000059CF0E94000015
:1012A00056CF0E94000053CF0E94000050CF0E94F2
:1012B00000004DCF0E9400004ACF0E94000047CF9F
:1012C0000E94000044CF0E94000041CF0E94000015
:1012D0003ECF0E9400003BCF0E94000038CF0E940A
:1012E000000035CF0E94000032CF0E9400002FCFB7
:1012F0000E9400002CCF0E94000029CF0E94000015
:1013000026CF0E94000023CF0E94000020CF0E9421
:1013100000001DCF0E9400001ACF0E94000017CFCE
:101320000E94000014CF0E94000011CF0E94000014
:101330000ECF0E9400000BCF0E94000008CF833028
:1013400009F055C0FE01EE0FFF1FE259FC4F20814E
:1013500031814C2FFE01E451FD4F5491FE01EA55BD
:10136000FD4F8491882399F090E0880F991FFC012C
:10137000EE58FD4FA591B491FC01E457FD4F8591C6
:1013800094918FB7F894EC91E52BEC938FBF2115D6
:10139000310519F460E0842FEFCE2F3F310511F4B1
:1013A00061E0F9CFFE01EE5CFC4FE491E150E231E7
:1013B00008F0B7C0F0E08827EF51F64F8F4F0C943C
:1013C000E20AF309FF09040A0E0A180A910A220A1E
:1013D0002A0A320A3C0A460A500A5F0A690A910A36
:1013E000730A7D0A870A84B5806884BD27BD21966B
:1013F000C634D10509F0ADCE0E9432049DCD84B52E
:10140000806284BD28BDF3CF809180008068809386
:1014100080003093890020938800E9CF809180007C
:1014200080628093800030938B0020938A00DFCF0E
:101430008091800088608093800030938D0020939D
:101440008C00D5CF8091B00080688093B00020934D
:10145000B300CDCF8091B00080628093B000209324
:10146000B400C5CF80919000806880939000309345
:10147000990020939800BBCF809190008062809368
:10148000900030939B0020939A00B1CF8091900000
:1014900088608093900030939D0020939C00A7CF9C
:1014A0008091A00080688093A0008091A0008F7B35
:1014B0008093A0003093A9002093A80098CF80913A
:1014C000A00080628093A0003093AB002093AA001C
:1014D0008ECF8091A00088608093A0003093AD00F3
:1014E0002093AC0084CF80912001806880932001FC
:1014F00030932901209328017ACF809120018062C6
:101500008093200130932B0120932A0170CF80918A
:10151000200188608093200130932D0120932C01BD
:1015200066CF203831050CF03BCF34CFBB27FB0111
:101530005527AA27880F991FAA1FA41710F0A41BCC
:1015400083955051B9F7A05DAA3308F0A95DA19326
:10155000009779F7B111B1931192CB010C94B00AB5
:10156000DC01FC01672F71917723E1F7329704C00A
:101570007C916D9370836291AE17BF07C8F3089595
:10158000A1E21A2EAA1BBB1BFD010DC0AA1FBB1F87
:10159000EE1FFF1FA217B307E407F50720F0A21BF9
:1015A000B30BE40BF50B661F771F881F991F1A9466
:1015B00069F760957095809590959B01AC01BD0190
:1015C000CF010895EE0FFF1F881F8BBF0790F69184
:1015D000E02D19940F931F93CF93DF9382309105E1
:1015E00010F482E090E0E091FE03F091FF0330E020
:1015F00020E0B0E0A0E0309799F42115310509F41E
:101600004AC0281B390B24303105D8F58A819B81CB
:101610006115710589F1FB0193838283FE0111C07D
:10162000408151810281138148175907E0F0481722
:10163000590799F4109761F012960C93129713962C
:101640001C933296CF01DF91CF911F910F91089596
:101650000093FE031093FF03F4CF2115310551F0E1
:101660004217530738F0A901DB019A01BD01DF01E0
:10167000F801C1CFEF01F9CF9093FF038093FE03F0
:10168000CDCFFE01E20FF31F8193919322503109D8
:1016900039832883D7CF2091FC033091FD03232B7E
:1016A00041F420910202309103023093FD03209314
:1016B000FC0320910002309101022115310541F413
:1016C0002DB73EB74091040250910502241B350B03
:1016D000E091FC03F091FD03E217F307A0F42E1B49
:1016E0003F0B2817390778F0AC014E5F5F4F241786
:1016F000350748F04E0F5F1F5093FD034093FC03E6
:10170000819391939FCFF0E0E0E09CCFCF93DF9364
:101710000097E9F0FC01329713821282A091FE0338
:10172000B091FF03ED0130E020E01097A1F420819B
:101730003181820F931F2091FC033091FD03281704
:10174000390709F061C0F093FD03E093FC03DF91DA
:10175000CF910895EA01CE17DF07E8F54A815B8152
:101760009E0141155105B1F7E901FB83EA834991D7
:101770005991C40FD51FEC17FD0761F48081918149
:101780000296840F951FE901998388838281938152
:101790009B838A83F0E0E0E012968D919C911397F1
:1017A0000097B9F52D913C911197CD010296820FCA
:1017B000931F2091FC033091FD032817390739F658
:1017C000309751F51092FF031092FE03B093FD0382
:1017D000A093FC03BCCFD383C28340815181840F8B
:1017E000951FC817D90761F44E5F5F4F88819981B3
:1017F000480F591F518340838A819B819383828341
:101800002115310509F0B0CFF093FF03E093FE03FB
:101810009ECFFD01DC01C0CF13821282D7CF4F9241
:101820005F926F927F928F929F92AF92BF92CF9270
:10183000DF92EF92FF920F931F93CF93DF938C0170
:10184000009799F4CB01DF91CF911F910F91FF90F9
:10185000EF90DF90CF90BF90AF909F908F907F9050
:101860006F905F904F900C94EA0AFC01E60FF71F0F
:101870009C0122503109E217F30708F4AEC0D901E8
:10188000CD91DC911197C617D70720F1C530D1054E
:1018900078F0CE0104978617970750F0C61BD70B38
:1018A0002297C193D1936D937C93CF010E94860BB5
:1018B000C801DF91CF911F910F91FF90EF90DF90C2
:1018C000CF90BF90AF909F908F907F906F905F90E0
:1018D0004F9008955B01AC1ABD0A4C018C0E9D1E01
:1018E000A091FE03B091FF03512C412CF12CE12C6F
:1018F000109731F58091FC039091FD0388159905AF
:1019000009F05CC04616570608F058C080910002E6
:1019100090910102009741F48DB79EB74091040267
:1019200050910502841B950BE817F90708F055C084
:10193000F093FD03E093FC03F90171836083B8CF5A
:101940008D919C91119712966C90129713967C90A2
:101950001397A815B90559F56C0142E0C40ED11CC6
:10196000CA14DB0420F1AC014A195B09DA011296B2
:10197000159780F06282738251834083D9016D9301
:101980007C93E114F10471F0D7011396FC93EE936C
:1019900012978ECF22968C0F9D1FF9019183808321
:1019A000F301EFCFF093FF03E093FE0381CF4816DE
:1019B000590608F42C017D01D3019ACFCB010E9476
:1019C000EA0A7C01009749F0AE01B8010E94F00CD0
:1019D000C8010E94860B87016BCF10E000E068CF42
:1019E000FB01DC0102C001900D9241505040D8F73C
:1019F0000895FB01DC0101900D920020E1F70895AC
:041A0000F894FFCF88
:101A040000000004800000000000C50316035C030E
:101A140012048D036B037F030D0A00446967697424
:101A2400616C2050696E203A0020616C72656164BB
:0C1A3400792072657365727665640000AD
:00000001FF
